:1000000000000320F10400003D0500004105000050
:100010003905000039050000390500000000000026
:100020000000000000000000000000004505000086
:100030003905000000000000490500004D050000E2
:100040005105000055050000590500005D05000040
:100050006105000065050000690500006D050000F0
:100060007105000075050000790500007D050000A0
:100070008105000085050000890500008D05000050
:100080009105000039050000390500003905000020
:100090003905000039050000390500003905000068
:1000A00095050000990500009D050000A1050000D0
:1000B000A5050000A9050000AD050000B105000080
:1000C000B5050000B9050000BD050000C105000030
:1000D000C5050000C9050000CD0500003905000078
:1000E0003905000039050000390500003905000018
:1000F0003905000039050000390500003905000008
:1001000039050000390500003905000039050000F7
:1001100039050000390500003905000039050000E7
:1001200039050000390500003905000039050000D7
:1001300039050000390500003905000039050000C7
:1001400039050000D1050000D5050000D9050000E3
:10015000DD050000E105000039050000390500005B
:100160003905000039050000E5050000E90500003B
:10017000ED050000F1050000F5050000F90500009F
:10018000FD0500000106000005060000090600004C
:100190000D060000110600003905000039050000B9
:1001A0003905000039050000390500003905000057
:1001B0003905000039050000390500003905000047
:1001C0003905000039050000390500003905000037
:1001D0003905000039050000390500003905000027
:1003F000390500003905000039050000FFFFFFFF47
:10040000FFFFFFFFFFFFFFFFFFFFFFFFFEFFFFFFFD
:1004100010B5054C237833B9044B13B10448AFF33E
:1004200000800123237010BD6800FF1F0000000042
:10043000D01900000C4B43B10C480D4910B5AFF377
:1004400000800C48036823B910BD0A48036833B91B
:100450007047094B002BF7D0BDE810401847064BFA
:10046000002BF5D0184700BF00000000D019000095
:100470006C00FF1F6400FF1F00000000154B002BE5
:1004800008BF134B9D46A3F5803A00218B460F46CB
:100490001348144A121A00F05FFA0F4B002B00D0D9
:1004A00098470E4B002B00D09847002000210400F5
:1004B0000D000D48002802D00C48AFF3008000F07A
:1004C00027FA2000290000F099F900F0FBF900BF9D
:1004D00000000800000003200000000000000000F1
:1004E0006800FF1F9400FF1F0000000000000000D4
:1004F00072B60A480A4901600A6882F30888094806
:1005000080470949094A0A4B9A42BEBF51F8040B79
:1005100042F8040BF8E762B60648804708ED00E0B1
:100520000000000059080000F81900000000FF1F3B
:100530006800FF1F7D040000FFF7FEBF354800473D
:10054000354800473548004735480047354800479B
:10055000354800473548004735480047354800478B
:10056000354800473548004735480047354800477B
:10057000354800473548004735480047354800476B
:10058000354800473548004735480047354800475B
:10059000354800473548004735480047354800474B
:1005A000354800473548004735480047354800473B
:1005B000354800473548004735480047354800472B
:1005C000354800473548004735480047354800471B
:1005D000354800473548004735480047354800470B
:1005E00035480047354800473548004734480047FC
:1005F00033480047324800473148004730480047F9
:1006000030480047304800473048004730480047EE
:10061000304800473D050000410500004505000049
:10062000490500004D0500003905000039050000AE
:1006300039050000390500003905000039050000C2
:1006400039050000390500003905000039050000B2
:1006500039050000390500003905000039050000A2
:100660003905000039050000390500003905000092
:100670003905000039050000390500003905000082
:100680003905000039050000390500003905000072
:100690003905000039050000390500003905000062
:1006A0003905000039050000390500003905000052
:1006B0003905000039050000390500003905000042
:1006C0003905000039050000390500003905000032
:1006D000390500003905000000000000000000009E
:1006E00001F0FF01102A2BDB10F0070F08D010F8E3
:1006F000013B013A8B422DD010F0070F42B3F6D1E7
:10070000F0B441EA012141EA014122F007047FF0FF
:1007100000070023F0E80256083C85EA010586EA56
:10072000010685FA47F5A3FA87F586FA47F6A5FA92
:1007300087F68EB9EED1F0BC01F0FF0102F007029E
:1007400032B110F8013B013A83EA010313B1F8D149
:100750000020704701387047002D06BF354603382A
:10076000073815F0010F07D1013015F4807F02BF63
:10077000013015F4C03F0130F0BC0138704700BFB4
:1007800038B5184B184A19681848194C194D41F4D6
:1007900080611960196841F400511960936D23F468
:1007A000E06343F480739365836E23F4E06343F462
:1007B00080738366536D23F4E06343F48073536561
:1007C00028462246162100F01DF822461A210A4822
:1007D00000F018F8224628461521BDE8384000F000
:1007E00011B800BF3880044000A0044000D004408D
:1007F0006018000040F00F4000F10F4008B5FFF70F
:10080000BFFFFEE708B5DAB113788BB153783BB17F
:10081000012303FA01F1416043691943416108BDB5
:10082000012303FA01F1816043691943416108BD65
:100830004369012202FA01F123EA0101416108BD85
:10084000024B034A03484B2100F01EF8E418000055
:10085000EC1800008818000030B40949094BD1F8A1
:1008600088204CF220554DF6281442F470024FF4C3
:10087000E970C1F88820DD81DC81188030BC7047C8
:1008800000ED00E0002005401FB51C46094B1B6829
:100890000546D86852B1084B02928DE80A002246FC
:1008A0002B46064900F022F800F0F4FB044B1A46F0
:1008B000F2E700BF0000FF1FF91800000619000052
:1008C0003419000008B5074B044613B10021AFF3FB
:1008D0000080054B1868836A03B19847204600F0F2
:1008E000BDFF00BF00000000381900000EB403B5C2
:1008F000014603AB054853F8042B0068019300F050
:100900005DF802B05DF804EB03B070470000FF1F14
:1009100070B50D4E0D4CA41BA4100025A54209D1A5
:100920000B4E0C4C01F054F8A41BA4100025A5425A
:1009300005D170BD56F8253098470135EEE756F8D9
:10094000253098470135F2E7F0190000F019000052
:10095000F0190000F419000002440346934200D14C
:10096000704703F8011BF9E79368013B002B10B4B3
:10097000936009DA9469A34202DBCBB20A2B03D15C
:100980005DF8044B00F0C6BA1368581C106019706B
:10099000C8B25DF8044B7047F8B506460F461446DA
:1009A000D518AC4201D1002007E03A4614F8011BEB
:1009B0003046FFF7D9FF431CF3D1F8BD2DE9F04FC6
:1009C0009DB00C4617460393064618B183690BB9D0
:1009D00000F05AFC7C4B9C4257D17468A3891807DD
:1009E0005DD52369002B5AD00023099320238DF86D
:1009F000293030238DF82A304FF0010BB846454698
:100A000015F8013B002B55D1B8EB070A0BD0534624
:100A10003A4621463046FFF7BFFF013000F0C48060
:100A2000099B5344099398F80030002B00F0BC80D8
:100A300000234FF0FF3204930793059206938DF83D
:100A400053301A93052229786048FFF749FE05F1D3
:100A50000108049B002831D1D90644BF20228DF81B
:100A600053201A0744BF2B228DF853202A782A2AB4
:100A70002CD0079A00210A20A846013598F80030AA
:100A8000303B092B6DD971B326E0514B9C4201D10B
:100A9000B468A3E74F4B9C4208BFF4689EE7214629
:100AA000304600F089FA00289ED04FF0FF301DB08C
:100AB000BDE8F08F252BA7D0A846A0E7434A801AAF
:100AC0000BFA00F0184304904546BBE7039A111D4A
:100AD00012680391002A01DB079204E0524243F0BE
:100AE00002030792049398F800302E2B10D198F847
:100AF00001302A2B08F1010137D1039B1A1D1B6815
:100B00000392002BB8BF4FF0FF3308F102080593A2
:100B1000314D98F8001003222846FFF7E1FD40B15F
:100B20004023401B03FA00F0049B0343049308F1A5
:100B3000010898F8001029488DF82810062208F1BD
:100B40000107FFF7CDFD002834D0254B03BB039BE5
:100B5000073323F0070308330393099B4B4409939E
:100B60004CE700FB0232012186E70023059318467B
:100B70000A258846013198F80020303A092A03D91D
:100B8000002BC5D00590C3E705FB00200123F0E74B
:100B900003AB00932246134B04A93046AFF3008009
:100BA000B0F1FF3F8146D8D1A3895B063FF57DAF09
:100BB00009987CE703AB009322460A4B04A9304610
:100BC00000F088F8ECE700BF901900003C19000025
:100BD000B019000070190000421900004619000009
:100BE00000000000990900002DE9F04791461F46DA
:100BF0008A680B69DDF820809342B8BF1346C9F8B4
:100C0000003091F8432006460C4612B10133C9F872
:100C100000302368990642BFD9F800300233C9F882
:100C20000030256815F0060507D104F1190AE368BC
:100C3000D9F800209B1A9D4229DB94F843302268A2
:100C4000003318BF012392062ED404F14302394623
:100C50003046C047013021D02368E568D9F800202C
:100C600003F00603042B08BFAD1AA36822690CBF6A
:100C700025EAE57500259342C4BF9B1AED184FF095
:100C800000091A344D451BD10020BDE8F08701232F
:100C9000524639463046C047013003D14FF0FF304D
:100CA000BDE8F0870135C2E7E1185A1C302081F811
:100CB0004300224494F8451082F843100233C4E7FD
:100CC0000123224639463046C0470130E6D009F1BB
:100CD0000109D7E72DE9F04317460A7E85B06E2A51
:100CE000984606460C460C9B01F1430E00F0BC8072
:100CF0001AD8632A2ED00AD8002A00F0C880582AB1
:100D000000F08A8004F1420584F842202AE0642A37
:100D100001D0692AF6D121681A6811F0800F23D01A
:100D2000111D1960136827E0732A00F0B48008D8F9
:100D30006F2A2AD0702AE5D10A6842F020020A60A0
:100D400003E0752A21D0782ADCD1782284F8452066
:100D50006E4964E01A6801F14205111D19601368BB
:100D600084F842300123A3E011F0400F02F10401A6
:100D70001960D7D0B2F90030002B03DA2D225B4284
:100D800084F8432062490A2217E02068196810F0AD
:100D9000800F03D0081D18600B6806E010F0400FAC
:100DA00001F104001860F7D00B8859496F2A14BF6D
:100DB0000A220822002084F843006568A560002DFF
:100DC000C0F29C80206820F004002060002B3FD1FE
:100DD000002D40F095807546082A0BD12368DA076C
:100DE00008D5236962689A42DEBF302305F8013CCA
:100DF00005F1FF35AEEB05032361CDF800803B46DE
:100E000003AA21463046FFF7EFFE013055D14FF0DF
:100E1000FF3005B0BDE8F08381F845203C492268E9
:100E2000186812F0800F00F104051D6001D00368FE
:100E300002E05506FBD50388D00744BF42F02002EC
:100E400022601BB9226822F0200222601022B1E742
:100E50007546B3FBF2F002FB1033CB5C05F8013DA5
:100E600003460028F5D1B7E708681A68496910F009
:100E7000800F04D0101D18601368196007E010F08F
:100E8000400F02F1040018601368F6D019800023A7
:100E900023617546B1E71A68111D1960156862680B
:100EA00000212846FFF71CFC08B1401B6060636806
:100EB0002361002384F843309FE723692A4639469B
:100EC0003046C0470130A2D023689B0707D50025D4
:100ED00004F11909E368039A9B1A9D4205DBE06857
:100EE000039B9842B8BF184693E701234A46394608
:100EF0003046C04701308AD00135EBE7002BA7D13F
:100F00000B7884F8423004F1420565E75E19000071
:100F10004D190000F8B50E461446054618B1836910
:100F20000BB900F0B1F9214B9C422AD16C68A3693E
:100F3000A360A3891A072ED5236963B323692068A8
:100F4000C01A6369F6B29842374604DB2146284648
:100F500000F030F928BBA368013BA36023685A1C4A
:100F600022601E7063690130984204D0A389DB07B8
:100F700019D50A2E17D12146284600F01BF990B149
:100F80000FE00B4B9C4201D1AC68D0E7094B9C426F
:100F900008BFEC68CBE72146284600F00DF8002892
:100FA000CCD04FF0FF373846F8BD00BF9019000095
:100FB000B019000070190000324B70B51D6806466C
:100FC0000C4625B1AB6913B9284600F05DF92E4BEC
:100FD0009C420FD16C68B4F90C309AB215072CD42E
:100FE000D00611D40922326043F04003A3814FF0B0
:100FF000FF3070BD254B9C4201D1AC68EBE7244B20
:101000009C4208BFEC68E6E7510712D5616B41B11D
:1010100004F14403994202D0304600F023FA002341
:101020006363A38923F02403A381002363602369FE
:101030002360A38943F00803A38123694BB9A389E3
:1010400003F42073B3F5007F03D02146304600F04F
:10105000C9F9A28912F001030CD00023A3606369CF
:101060005B42A361236953B9B4F90C3013F08000DB
:10107000BAD170BD920758BF6369A360F2E7002040
:10108000F7E700BF0000FF1F90190000B019000033
:101090007019000008B5062000F0C8FA012000F021
:1010A000DDFB00008A892DE9F041054610070C465A
:1010B0005AD44B68002B05DC0B6C002B02DC0020A3
:1010C000BDE8F081E66A002EF9D0002312F48052C8
:1010D0002F682B6033D0606DA3895A0705D56368EC
:1010E000C01A636B0BB1236CC01A00230246E66A78
:1010F000216A2846B047431CA38906D129681D29C7
:101100004BD82B4ACA40D60747D500226260D90483
:101110002269226004D5421C01D12B6803B96065A5
:10112000616B2F600029CAD004F14403994202D0B8
:10113000284600F097F900206063BDE8F081216A3D
:1011400001232846B047411CC6D12B68002BC3D0D1
:101150001D2B01D0162B01D12F60B0E7A38943F0DE
:101160004003A381BDE8F0810F69002FA7D093074A
:101170000E6808BF4B690F6018BF0023A6EB070875
:101180008B60B8F1000F9ADD43463A46216AA66AA1
:101190002846B047002807DCA38943F04003A38119
:1011A0004FF0FF30BDE8F0810744A8EB0008E8E706
:1011B0000100402038B50B6905460C46DBB118B17B
:1011C00083690BB900F060F80C4B9C4209D16C6844
:1011D000B4F90C307BB121462846BDE83840FFF712
:1011E00061BF074B9C4201D1AC68F1E7054B9C42C3
:1011F00008BFEC68ECE7002038BD00BF9019000084
:10120000B019000070190000014900F0A9B800BF32
:10121000B5110000002310B50446036043608360ED
:1012200081814366C281036143618361194608225B
:101230005C30FFF791FB054B6362054BA362054BE6
:10124000E362054B2462236310BD00BF65160000F6
:1012500087160000BF160000E316000070B54A1E96
:10126000682555430E4605F1740100F049F904461E
:1012700040B1002180E842000C30A06005F1680216
:10128000FFF76AFB204670BD836910B5044633BB87
:101290008364C3640365124B124A1B6882629842DE
:1012A00004BF0123836100F01FF86060204600F056
:1012B0001BF8A060204600F017F80022E06004212F
:1012C0006068FFF7A7FF01220921A068FFF7A2FFCE
:1012D00002221221E068FFF79DFF0123A36110BDE8
:1012E0003819000009120000F8B51C4B1E68B369DC
:1012F000074613B93046FFF7C7FF4836B46873682E
:10130000013B03D5336833B13668F7E7B4F90C50C5
:101310006DB16834F4E704213846FFF79FFF306071
:101320000028F1D10C233B6004462046F8BD4FF65F
:10133000FF73E3810123A38165662560A560656075
:1013400025616561A5610822294604F15C00FFF76B
:1013500003FB6563A563A564E564E6E7381900004F
:101360002DE9F8438046894600F14804002614B967
:101370003046BDE8F883A5686768013F01D5246859
:10138000F5E7AB89012B07D9B5F90E30013303D04E
:1013900029464046C84706436835EEE770B50E4615
:1013A000B1F90E10002990B014461D4607DA00234B
:1013B0002B60B3891A0610D44FF480630EE001AAA3
:1013C00000F0B6F90028F2DB029A02F47042A2F5AE
:1013D00000535A425A412A60EEE74023002023601E
:1013E00010B070BD8B8973B59D0706460C4607D5B6
:1013F00004F14703236023610123636102B070BDE0
:1014000001AB6A46FFF7CAFF00990546304600F077
:1014100077F848B9B4F90C309A05EFD423F00303F8
:1014200043F00203A381E3E70D4BB362A38920607D
:1014300043F08003A381009B6361019B20615BB14A
:10144000B4F90E10304600F085F928B1A38923F0D5
:10145000030343F00103A381A3891D43A581CDE7C5
:101460000912000038B50546002945D051F8043C62
:101470000C1F002BB8BFE41800F08EF91F4A136848
:10148000104633B9636014602846BDE8384000F068
:1014900084B9A3420CD921686218934204BF1A6828
:1014A0005B68636004BF521822600460ECE7134677
:1014B0005A680AB1A242FAD919685818A0420BD149
:1014C00020680144581882421960DDD110685268C2
:1014D0005A6001441960D7E702D90C232B60D3E787
:1014E000206821188A4204BF11685268626004BFF4
:1014F000091821605C60C7E738BD00BF8400FF1F8A
:1015000070B5CD1C25F0030508350C2D38BF0C2512
:10151000002D064601DBA94203D90C2333600020CD
:1015200070BD00F039F9234A1468214691B9224C64
:1015300023681BB9304600F041F820602946304648
:1015400000F03CF8431C26D10C233360304600F0F9
:1015500024F9E4E70B685B1B1AD40B2B0FD90B6043
:10156000CD50CC18304600F018F904F10B00231DC3
:1015700020F00700C31A1BD05A42E25070BD8C42C3
:101580000DBF63684B686360136018BF0C46E9E7E2
:101590000C464968CAE7C41C24F00304A04205D0E5
:1015A000211A304600F00AF80130CDD02560D9E785
:1015B00070BD00BF8400FF1F8800FF1F38B5064CB8
:1015C000002305460846236000F032F9431C02D18F
:1015D000236803B12B6038BD9000FF1F1F2938B569
:1015E00004460D4604D9162303604FF0FF3038BD82
:1015F000426C12B152F821304BB9204600F030F85D
:101600002A4601462046BDE8384000F017B8012BB5
:101610000AD0591C03D116230360012038BD0024D1
:1016200042F8254028469847002038BD024B014625
:101630001868FFF7D3BF00BF0000FF1F38B5074C85
:101640000023054608461146236000F0D9F8431CE4
:1016500002D1236803B12B6038BD00BF9000FF1F8B
:1016600000F0BEB810B50C46B1F90E1000F096F8B7
:101670000028ABBF636DA3891B1823F48053ACBF54
:101680006365A38110BD2DE9F0411F468B89DB0501
:1016900005460C46164605D502230022B1F90E1068
:1016A00000F068F8A389B4F90E1023F48053A381E5
:1016B00032463B462846BDE8F04100F017B810B569
:1016C0000C46B1F90E1000F055F8431CA38915BF64
:1016D000606523F4805343F48053A38118BFA38132
:1016E00010BDB1F90E1000F013B8000038B5074C6A
:1016F000054608461146002222601A4600F0A6F868
:10170000431C02D1236803B12B6038BD9000FF1F3A
:1017100038B5064C002305460846236000F050F813
:10172000431C02D1236803B12B6038BD9000FF1F1A
:1017300038B5074C0023054608461146236000F0E3
:1017400047F8431C02D1236803B12B6038BD00BFAA
:101750009000FF1F38B5064C00230546084623605D
:1017600000F046F8431C02D1236803B12B6038BD5A
:101770009000FF1F38B5074C054608461146002269
:1017800022601A4600F044F8431C02D1236803B1DA
:101790002B6038BD9000FF1F7047704738B5074C6D
:1017A000054608461146002222601A4600F038F825
:1017B000431C02D1236803B12B6038BD9000FF1F8A
:1017C000024B58221A604FF0FF3070479000FF1F05
:1017D000024B58221A604FF0FF3070479000FF1FF5
:1017E000024B58221A604FF0FF3070479000FF1FE5
:1017F000024B58221A600020704700BF9000FF1F64
:10180000024B58221A604FF0FF3070479000FF1FC4
:10181000024B58221A604FF0FF3070479000FF1FB4
:10182000024B58221A604FF0FF3070479000FF1FA4
:10183000044A05491368002B08BF0B461844106082
:10184000184670478C00FF1F00000020024B5822F2
:101850001A604FF0FF3070479000FF1FFEE700BF97
:1018600001000000696E7374616E6365203C204165
:10187000525241595F53495A4528735F6770696FE7
:1018800042617365732900002F686F6D652F636176
:10189000737061722F50726F6A656374732F465252
:1018A000444D2D4B3634462F6C6962732F53444B95
:1018B0005F322E325F4652444D2D4B3634462F64F4
:1018C0006576696365732F4D4B36344631322F642C
:1018D0007269766572732F66736C5F6770696F2EBD
:1018E00063000000636F6E66696700004750494FF0
:1018F0005F50696E496E6974002C2066756E637462
:10190000696F6E3A2000617373657274696F6E203F
:1019100022257322206661696C65643A2066696CD1
:101920006520222573222C206C696E652025642594
:101930007325730A000000000400FF1F232D302BC5
:101940002000686C4C0065666745464700303132C0
:101950003334353637383941424344454600303117
:101960003233343536373839616263646566000076
:101970000000000000000000000000000000000067
:101980000000000000000000000000000000000057
:101990000000000000000000000000000000000047
:1019A0000000000000000000000000000000000037
:1019B0000000000000000000000000000000000027
:1019C0000000000000000000000000000000000017
:1019D000F8B500BFF8BC08BC9E467047F8B500BF1C
:0819E000F8BC08BC9E467047EC
:0819E80094EAFF7F01000000FA
:0419F00035040000BA
:0419F40011040000DA
:1019F8000400FF1F0000000090190000B01900004B
:101A08007019000000000000000000000000000045
:101A180000000000000000000000000000000000BE
:101A280000000000000000000000000000000000AE
:101A3800000000000000000000000000000000009E
:101A4800000000000000000000000000000000008E
:081A5800000000000000000086
:04000003000004F104
:00000001FF
